:020000040800F2
:10000000B8090020ED010008332200086120000833
:1000100031220008990700085D2800080000000050
:10002000000000000000000000000000C5240008DF
:10003000290800080000000035220008C724000835
:10004000070200080702000807020008070200086C
:10005000070200080702000807020008070200085C
:10006000070200080702000807020008070200084C
:10007000070200080702000807020008070200083C
:10008000070200080702000807020008070200082C
:100090009D070008A50700080702000807020008DE
:1000A000070200080702000807020008070200080C
:1000B00007020008070200080702000807020008FC
:1000C00007020008070200080702000807020008EC
:1000D00007020008070200080702000807020008DC
:1000E00007020008070200080702000807020008CC
:1000F00007020008070200080702000807020008BC
:1001000007020008070200080702000807020008AB
:10011000070200080702000807020008070200089B
:10012000070200080702000807020008070200088B
:10013000070200080702000807020008070200087B
:10014000AD070008B507000807020008070200080D
:100150000702000807020008070200081928000823
:10016000070200080702000807020008070200084B
:10017000070200080702000800000000000000005D
:1001800007020008070200088125000889250008E9
:10019000070200080702000800000000070200082C
:1001A000070200080702000800000000000000002D
:1001B000070200080000000000000000070200081D
:1001C00007020008070200080702000807020008EB
:1001D0000702000807020008DFF80CD000F0BEFAA2
:1001E0000048004771280008B809002006488047E9
:1001F00006480047FEE7FEE7FEE7FEE7FEE7FEE70C
:10020000FEE7FEE7FEE7FEE771250008D9010008DA
:100210002DE9F05F0546002092469B46884606463B
:10022000814640241BE0284641464746224600F0CE
:10023000E6F953465A46C01A914110D31146184662
:10024000224600F0CDF92D1A67EB01084F462246F1
:100250000120002100F0C4F917EB00094E41201ED7
:10026000A4F10104DFDC484631462A464346BDE896
:10027000F09FD2B201E000F8012B491EFBD270477B
:100280000022F6E710B513460A4604461946FFF762
:10029000F0FF204610BD421C10F8011B0029FBD1C5
:1002A000801A70472DE9FE4F804681EA0300C00F97
:1002B0000C46009021F0004123F00045B8EB02000D
:1002C000A94105D24046214690461C460B460246AF
:1002D00023F00040104347D0270DC7F30A00C3F3B3
:1002E0000A510290401A019040286BDAC3F31300C0
:1002F00040F4801B0098924620B10023D2EB030A01
:1003000063EB0B0B01985946C0F14002504600F0D8
:1003100067F906460D4650465946019A00F07FF9A6
:1003200010EB08006141002487EA115284EAE77368
:100330001A4340D0009A62B3019A012A4FEA075249
:1003400015DC001B61EB02014FF0004202EA07528C
:10035000CDE90042001C41F5801132462B4600F0E9
:100360007FF903B0BDE8F08F40462146F9E7001B56
:1003700061EB0201001C41F5801300185B4120185D
:10038000A2F5001747EB030140EAD570B6196D419D
:1003900011E06D084FEA360645EAC0754FEA07528C
:1003A000001B61EB0201001C41F5801149084FEA76
:1003B00030000019514132462B4603B0BDE8F04FE2
:1003C00000F03FB90098012240000023D0EB020268
:1003D00063EBE073009821464FEAE074B8EB00004D
:1003E00061EB0401E9E783F000435BE781F0004142
:1003F00058E72DE9FE4F81EA030404F0004421F0A0
:10040000004100944FF0000B23F0004350EA010438
:100410005ED052EA03045BD0C3F30A54C1F30A5519
:100420002C44A4F2F3340194A0FB0254C1F3130151
:1004300041F48011C3F3130343F4801301FB02441E
:1004400000FB034E840A970A44EA815447EA835723
:10045000A4FB076802958D0A05FB07854FEA932CDC
:1004600004FB0C542705029D4FEA065847EA16374D
:10047000B5EB08056EEB070C870E920E47EA811765
:1004800042EA8312A7FB0201B6EB0B0164EB000406
:100490002B0D43EA0C335E1844EB1C50DA465146F0
:1004A000E7FB0201C5F313044FEA0B3343EA14538D
:1004B0004FEA0432019C43EA0603A4F10C040294BF
:1004C000009CCDE900B400F0CBF803B0BDE8F08F9C
:1004D00000200146F9E72DE9F04D81EA030404F01C
:1004E000004B21F0004514464FF0000A23F0004174
:1004F00050EA050220D054EA01021DD0C5F30A5784
:100500000246C5F31303C1F31300C1F30A5640F4C6
:10051000801543F48013A7EB0608101BD64608F29B
:10052000FD3873EB050002D308F1010801E09218D1
:100530005B41B8F1000F03DA00200146BDE8F08D01
:1005400000204FF48011064684460EE0171B73EB23
:10055000050705D3121B63EB050306434CEA010CA8
:1005600049084FEA300092185B4150EA0107EDD18B
:1005700052EA030012D082EA040083EA050108432C
:1005800005D0101BAB4106D20122002306E0002259
:100590004FF0004302E06FF0010253101AEB060027
:1005A0004CEB085110EB0A0041EB0B01BDE8F04D9C
:1005B00000F047B830B50B46014600202022012448
:1005C00009E021FA02F59D4205D303FA02F5491B21
:1005D00004FA02F52844151EA2F10102F1DC30BD37
:1005E000202A04DB203A00FA02F1002070479140F3
:1005F000C2F1200320FA03F3194390407047202AE8
:1006000004DB203A21FA02F00021704721FA02F3BC
:10061000D040C2F120029140084319467047202A79
:1006200006DBCB17203A41FA02F043EAE07306E01A
:1006300041FA02F3D040C2F120029140084319462A
:10064000704710B5141E73F1000408DA401C41F124
:10065000000192185B411A4301D120F0010010BD46
:100660002DE9F04D92469B4611B1B1FA81F202E0BC
:10067000B0FA80F220329046FFF7B2FF04460F46F0
:1006800040EA0A0041EA0B0153465A46084313D098
:10069000114653EA010019D0C8F140025046FFF755
:1006A000AEFF05460E46504659464246FFF798FFB4
:1006B000084305D0012004E020463946BDE8F08D0E
:1006C0000020054346EAE0762C4337430A98630549
:1006D000E40AA0EB08000022FD0A44EA47540A306D
:1006E00002D500200146E9E7010510196941DDE95D
:1006F000084500196941BDE8F04DA2E7C1F30A526F
:10070000C1F3130140F2FF3341F480119A4202DA3F
:1007100000200146704740F233439A42A2F233422E
:1007200002DC5242FFF76BBFFFF75ABF30B5041E21
:1007300071F1000404DB4FF00044404264EB01011E
:10074000141E73F1000405DB1C464FF000435242B7
:1007500063EB0403994208BF904230BD064C074D3D
:1007600006E0E06840F0010394E807009847103481
:10077000AC42F6D3FFF734FDEC3100080C32000830
:10078000002858BF704740427047000001480121CF
:100790000170704710000020FEE70000964800F04E
:1007A000B1BA00BF944800F0ADBA00BF914800F064
:1007B000A9BA00BF8F4800F0A5BA00BF70B58AB0D3
:1007C000002601206C4618210696CDE90700204638
:1007D000FFF756FD884D2146284600F079F90E2096
:1007E00021460990CDE90460824E304600F070F950
:1007F000284600F0D6FC2846022100F003F93046D6
:1008000000F0CFFC3046022100F0FCF80AB070BDC9
:10081000744A02EB80004164704700BF014A42F80D
:100820002010704784050020704700002DE9FC4728
:100830006C4CFF30DFF8B0810D9B2070C0B24201DC
:1008400008EB401738F8021007F1080A39811878C8
:100850005E7846EA002028F802009A78DE7846EAB8
:1008600002227A801A795E7946EA0222BA809A795F
:10087000BA713A4632F81C3F23B901211180014672
:10088000AAF8000009B2594A8842A0EB0105B8BF96
:100890004FF4005256193046FFF772FF8146284642
:1008A000FFF76EFF8145B8BF354638692844504D83
:1008B00038613888AAF80000207808EB401104EB72
:1008C000800200EB800092ED110A91ED041A05EB15
:1008D00000102830F8EEC00AB8EEC10A01F0ABFCF7
:1008E000207808EB401100EB8000B1F9021005EB15
:1008F0000010D0ED130A00EE101AB8EEC00A01F095
:100900009AFC2078032834D895ED090A95ED1D1A34
:1009100095ED312A95ED453A08226B46BDEEC00AA9
:1009200010EE100A010A04F8011FBDEEC10A0021F1
:10093000BDEEC21ABDEEC32AC4F81B10C4F81F10C6
:10094000C4F82320607010EE100A010AA170E07054
:1009500011EE100A010A2171607112EE100A010AEB
:10096000A171E0714FF40070214641F8130F224845
:1009700033E095ED590A95ED6D1A95ED812A95EDC7
:10098000953A082201ABBDEEC00A10EE100A010A2A
:1009900004F8091FBDEEC10A0021BDEEC21ABDEE6A
:1009A000C32AC4F82B10C4F82F10C4F83320607089
:1009B00010EE100A010AA170E07011EE100A010A8F
:1009C0002171607112EE100A010AA171E07140F20A
:1009D000FF10214641F8230F0648224600F026F872
:1009E000BDE8FC87800000200002002000E0FFFF3F
:1009F000000300200C010020E4000020EFF3108031
:100A000072B6FEE790F82020013AD2B2012A04D84B
:100A1000006800F11402002004E000F1240201202B
:100A20004FF48021136819431160704710B590F896
:100A30002040D0F800C0013CDCF808E0E4B2012C12
:100A40000DD81EF0E05F10D0CEF3016EBEF1030FA3
:100A500011D100F1240301204FF4000133E000F133
:100A6000240301204FF480212DE000F12403012014
:100A70004FF4001127E0012000FA0EF0186088689A
:100A8000002819BF4B6840EAC30308684305CC68D7
:100A90000CEB0E102343C0F880310B69C0F8843191
:100AA00000F5C073097D012905D100F5C2710C68FC
:100AB00044F480740C605168C0F88C111168C0F85F
:100AC0008811002001211A681143196010BD00002F
:100AD000036890F82020013AD2B2012A19D870B5E3
:100AE00042484FF0010E00F50062934217D0D0F853
:100AF000002200F5007C42F00102C0F80022D0F88C
:100B0000002222F47C52C0F800224A6A13020246F4
:100B100008E0416A41F4802141620120704700F5FC
:100B2000206C0123DCF800001843CCF80000486971
:100B3000D2F81C4200F01F030EFA03F39C436FEA45
:100B4000030EC2F81C42CC69012C10D034BBD2F881
:100B50000C4204EA0E04C2F80C4202EBC004CD6859
:100B60008E8846EA0545C4F840520C460EE0D2F89D
:100B70000C421C43C2F80C4202EBC0040D688E8884
:100B800046EA0545C4F8405201F10C048D682488FA
:100B900002EBC00044EA0544C0F844428869D2F838
:100BA000044244EA0305002808BF04EA0E05C2F81F
:100BB00004520869D2F8144244EA0305002808BF29
:100BC00004EA0E05C2F81452086A0128BDE8704014
:100BD00002BFD2F81C021843C2F81C02DCF8000065
:100BE00020F00100CCF800000020704700640040B5
:100BF000704710B590F82040013CE4B2012C72D847
:100C0000D0F800C000290CBFDCF80C40DCF8104024
:100C100014F0030F6DD00CEB011CDCF8B0410CF5A7
:100C2000D87E14F004049460DCF8B04119BFE408E5
:100C30005460640D14600029DEF8004004F00204E2
:100C4000D460DCF8B44104F00F041461DCF8B44162
:100C5000C4F307249461DCF8B4414FEA14445461AE
:100C6000DCF8B8211A70026802EB0112D2F8B82140
:100C70004FEA12225A70026802EB0112D2F8B82130
:100C80004FEA12429A70026802EB0112D2F8B821C0
:100C90004FEA1262DA70026802EB0112D2F8BC214C
:100CA0001A71026802EB0112D2F8BC214FEA12223B
:100CB0005A71026802EB0112D2F8BC214FEA1242CB
:100CC0009A71026802EB01124FF02001D2F8BC21A8
:100CD0004FEA1262DA71006800F1100208BF00F1F9
:100CE0000C0200200AE000F1240201204FF48021D0
:100CF00004E000F1240201204FF4001113681943AD
:100D0000116010BD2DE9F84F044620684669D0F8FF
:100D100004908768D0F80CB0D0F810A0D0F81880F4
:100D200016F0010F01D1002549E0F9070ED001218D
:100D30008160B80707D478071DD4380721D420462E
:100D400000F05BFA02E0204600F058FA0025F805B2
:100D50001CD520684FF480718160B80507D47805F0
:100D60000CD4380510D4204600F049FA0EE0204695
:100D700000F046FA0AE04FF40065E8E745F4005554
:100D800004E04FF48055E2E745F48045F80316D5BA
:100D900020684FF480318160B80307D4780309D408
:100DA00038030AD4204600F02CFA08E0204600F070
:100DB00029FA04E045F4004501E045F480353007A8
:100DC00007D51BF0100004D02068102145F40075F1
:100DD000C160700708D51BF0080005D02068082105
:100DE000C160204600F092F9B00707D52068C068BE
:100DF00010F0030F02D0204600F08AF9700607D5E4
:100E00001AF0100004D02068102145F480650161BB
:100E1000B00608D51AF0080005D020680821016145
:100E2000204600F0A9F9F00607D52068006910F007
:100E3000030F02D0204600F0A1F9B00308D519F045
:100E4000100005D0206810214160204600F0A8F96C
:100E5000F00308D519F0080005D02068082141608A
:100E6000204600F0D0F9300425D55FEA49701FD53F
:100E700006F4807018F0020F08EA102040EA05001E
:100E8000014618BF41F0020116F4007F08BF014679
:100E900018F0040F0D4618BF45F0040516F4806FD6
:100EA00008BF0D4616F4006F18BF18F070000DD182
:100EB0002068042141603DB1606A28436062204699
:100EC000BDE8F84FFFF794BEBDE8F88F1038000971
:100ED000052815D8DFE800F00306090C0F1245F0CD
:100EE00008050DE045F010050AE045F0200507E093
:100EF00045F0400504E045F0800501E045F48075CB
:100F00002068816921F070018161D1E7B0B50446A4
:100F1000C4B194F8200010B9204600F075F820689C
:100F2000016841F00101016000F098FA054620686F
:100F3000416811F0010F07D100F090FA401B0B2817
:100F4000F5D312E00120B0BD016821F0020101607B
:100F500000F084FA05462068416811F0020F0BD0BA
:100F600000F07CFA401B0B28F5D3606A052140F4A1
:100F700000306062012044E0217E026822F080039C
:100F8000012908BF42F080030360617E026822F0FD
:100F90004003012908BF42F040030360A17E0268BC
:100FA00022F02003012908BF42F020030360E17E04
:100FB000026842F01003012908BF22F01003036009
:100FC000217F026822F00803012908BF42F00803CC
:100FD0000360617F026822F00403012908BF42F028
:100FE00004030360D4E901C2D4E9033561691A43FB
:100FF0002A431143ACF101021143C16100200121D8
:10100000606284F82010B0BD10B586B0044601A817
:101010001421FFF735F920683849884235D038491E
:10102000884268D10020374900900A6942F0007276
:101030000A610A6902F000720092009A00900A6840
:1010400042F001020A60096801F001010091009973
:10105000022102914FF4C05101910390032001A994
:10106000049009200590284800F022F9142000215E
:10107000002200F05FFA142000F04EFA1520002143
:10108000002200F057FA152033E000201D4900909F
:101090000A6942F080620A610A6902F08062009285
:1010A000009A00900A6842F002020A60096801F0A2
:1010B000020100910099022102914FF440510191E7
:1010C0000390032001A90490092005900E4800F523
:1010D000806000F0EDF840200021002200F02AFAA4
:1010E000402000F019FA41200021002200F022FAED
:1010F000412000F011FA06B010BD00BF00680040AA
:101100000064004030380240000002407047000098
:10111000F0B58DB01749884217D02049884226D1B2
:1011200004AC1E4806AA00212346FFF762FD06987C
:10113000A0F2012107291AD807AF8ECFDDE90B6590
:10114000CDE90076CDE902540FE004AF094806AAC4
:1011500000213B46FFF74DFD0698A0F2012107292B
:1011600005D807AE7ECE8DE8F000FFF75FFB0DB02F
:10117000F0BD00BFE400002070470000074988422E
:1011800018BF704780B58AB0044803AA01AB01219B
:10119000FFF72FFD0AB0BDE8804070470C0100202A
:1011A0007047B0B5044694F8200001281CD10220F5
:1011B00084F820002068016821F00101016000F03E
:1011C0004DF905462068406810F0010F12D000F07C
:1011D00045F9401B0B28F5D3606A40F4003060628B
:1011E000052084F8200003E0606A40F4002060627B
:1011F0000120B0BD00206062B0BD704770477047ED
:10120000704770477047704770B50446A66D00F090
:1012100025F9054694F83500022829D1206801688F
:1012200021F016010160416921F080014161216CCA
:1012300009B9A16C19B1016821F0080101600168C8
:1012400021F00101016005E000F008F9401B0528CC
:1012500012D82068006810F0010FF5D1E06D3F2131
:1012600001FA00F0B060012084F83500002008E0A9
:1012700080206065012004E020206065032084F860
:1012800035000021C0B284F8341070BD90F83510DC
:10129000022909D1052180F835100068016821F084
:1012A00001010160002070478021416501207047E5
:1012B0002DE9FC4F5F4A07274FF001094FF0030A61
:1012C0004FF0000B4FF0000E002690425A4A08BF24
:1012D000062702444FEAB223062B38BF4FEAB22753
:1012E0000097102E08BFBDE8FC8F0C6809FA06F3C2
:1012F0001C4200F099804D6805F00304671E012F21
:1013000015D8D0F808C00AFA0EF72CEA070CCF68F7
:1013100007FA0EF747EA0C078760C5F3001707FACC
:1013200006FC47689F4347EA0C07476001E0032C2F
:101330001DD0C2680AFA0EF7022C22EA07028F6853
:1013400007FA0EF742EA0702C26010D13E4C0BF0DA
:101350001C020F27974004EA560505442C6A24EA2C
:1013600007070C6904FA02F23A432A624D680468DE
:1013700005F003020AFA0EF715F4403F02FA0EF2E6
:1013800024EA070742EA070202604DD000222B4CF4
:101390000BF00C0501922B4AA4462C4C17463A68D8
:1013A000A0460F24AC4042F480423A603A6802F40E
:1013B0008042019226F00302019F624452F80870B5
:1013C000A743009C04FA05F52F4342F80870DCF8A7
:1013D00008204D6842EA030715F4801F08BF22EA7F
:1013E0000307174A15F4001FCCF80870144622684A
:1013F00042EA030708BF22EA030715F4003F27600B
:10140000DCF8042042EA030708BF22EA030715F4C8
:10141000803FCCF80470DCF8002042EA030708BFE4
:1014200022EA0307CCF800700BF1040B0EF1020E58
:10143000013656E7001802400000FEBF003C0140A4
:101440000C3C014044380240FCFFFF7F08FCFFFFDA
:10145000002A08BF09048161704700001F488068A6
:10146000704700BF1D480178826811448160704751
:1014700080B50B48016841F400710160016841F4D6
:1014800080610160016841F480710160032000F017
:101490007DF80F2000F006F800F022F8002080BD53
:1014A000003C024070B50D4E04464FF47A7130781E
:1014B000B1FBF0F093490968B1FBF0F000F014FBC8
:1014C00001250F2C08D838B94FF0FF3021460022F3
:1014D000002500F02FF87460284670BD0000002041
:1014E00082B000200B4901904A6842F480424A6071
:1014F0004A6802F480420192019A0090086840F024
:1015000080500860086800F080500090009802B099
:10151000704700BF40380240002808DB00F01F0180
:101520000122400902FA01F1014A42F820107047F5
:1015300000E100E0B0B500F00F031A4D124CB0F11D
:10154000FF3FA3F104032B4403F10C03C8BF0319AD
:101550002868C0F30220051DC41E80F00700072D77
:101560004FF0010538BF0024042828BF042005FAE5
:1015700000F00138084005FA04F10F31A040114095
:10158000084300011870B0BD00E400E005494FF6C3
:10159000FF030A681A4060F30A22034810430860F8
:1015A000704700BF0CED00E00000FA052DE9F041A6
:1015B00004468846002C00F08780454BD3F8000491
:1015C00000F00700404507D283F80084D3F80004F8
:1015D00000F00700404577D1206810F0020F11D0CD
:1015E000410742BF996841F4E0519960010742BF49
:1015F000996841F4604199609968A26821F0F0010E
:1016000011439960C0072DD06068811E022904D261
:10161000196811F0007F0BD156E0012804D1196838
:1016200011F4003F04D14FE0196811F0020F4BD0C4
:1016300099681D4621F0030108439860FFF70EFFEB
:10164000064641F288372B469868616800F00C0026
:10165000B0EB810F06D0FFF701FF801BB842F2D933
:10166000032032E0D3F8000400F00700404507D91A
:1016700083F80084D3F8000400F00700404523D12C
:10168000206810F0040F05D09968E26821F4E05159
:1016900011439960000706D59868216920F46040DD
:1016A00040EAC10098601C4600F032F8A168094A7F
:1016B000C1F30311515CC840124908600648006834
:1016C000FFF7F0FE002000E00120C0B2BDE8F0818D
:1016D00000380240D43100080400002009480A49BB
:1016E0000A4A00680968C1F38221515CC84070470A
:1016F00004480549054A00680968C1F34231515C54
:10170000C84070470C00002008380240E43100084F
:1017100010B5F24C606800F00C011248082904D0A2
:10172000042904BF104810BD10BD2168236801F0D2
:101730003F02216813F4800FC1F3881105D1A1FB8A
:1017400000010023FEF764FD03E007484843B0FBB7
:10175000F2F021680222C1F3014102EB4101B0FB2A
:10176000F1F010BD0024F40000127A002DE9F843D6
:101770000446002C00F063812078D74ED74FC00775
:10178000B14651D0786800F00C00042807D13068C9
:1017900010F4003F48D06068002845D14FE17868D8
:1017A00000F00C00082803D1386810F4800FEED147
:1017B0006668B6F5803F09D0C846B6F5A02FD8F8C0
:1017C000000015D140F48020C8F800004E46306873
:1017D00040F480303060FFF741FE0546306810F479
:1017E000003F21D1FFF73AFE401B6428F6D9BEE046
:1017F00020F48030C8F80000D8F8000020F48020E1
:10180000C8F80000FFF72AFE002E05464646E5D13F
:101810004E46306810F4003F06D0FFF71FFE411B14
:1018200003206429F4D90BE1207880072FD578684C
:1018300010F00C0F08D0786800F00C0008280BD1CD
:10184000386810F4800F07D1306810F0020F17D0FD
:10185000E068012814D0F2E0E068002800F08980F8
:101860009F4801210160FFF7F9FD0546306810F03F
:10187000020F05D1FFF7F2FD401B0228F6D976E0F2
:101880003068216920F0F80040EAC100306020781B
:10189000000722D56169924879B10121C0F8801E04
:1018A000FFF7DCFD0546386F10F0020F15D1FFF78A
:1018B000D5FD401B0228F6D959E00021C0F8801E52
:1018C000FFF7CCFD0546386F10F0020F05D0FFF78B
:1018D000C5FD401B0228F6D949E0207840077BD59A
:1018E000F86B4FF0000810F0805F0CD1CDF800804D
:1018F0004FF00108F86B40F08050F863F86B00F08F
:10190000805000900098774E4846805910F4807FB0
:1019100012D14946885940F480708851FFF79EFDE6
:1019200005464846805910F4807F05D1FFF796FDA3
:10193000401B0228F5D91AE0A668012E05D0F86EE2
:10194000052E29D140F00400F866F86E40F0010041
:10195000F866FFF783FD054641F28836F86E10F011
:10196000020F32D1FFF77AFD401BB042F6D90320B7
:1019700066E05B4800210160FFF770FD05464846C0
:10198000006810F0020F3FF482AFFFF767FD411BC4
:1019900003200229F3D953E020F00100F866F86E25
:1019A00020F00400F866FFF759FD0546002ED3D15C
:1019B00041F28836F86E10F0020F06D0FFF74EFDA8
:1019C000411B0320B142F5D93AE0B8F1000F1EBF28
:1019D000F86B20F08050F863A669002E7AD0786802
:1019E00000F00C0008282FD1012E28D03868E169BA
:1019F00000F480028A4222D1216A00F03F028A422A
:101A00001DD147F6C071626A0140B1EB821F16D149
:101A1000A16A4FF6FF72C903914300F44032A1F569
:101A200080318A420BD1E16A00F07062B2EB016F43
:101A300005D1216B00F0E040B0EB017F4AD00120DE
:101A4000C0B201B0BDE8F083254900208846086691
:101A5000FFF704FD0546022E0BD14846006810F042
:101A6000007F12D0FFF7FAFC411B03200229F4D9B2
:101A7000E6E74846006810F0007F2BD0FFF7EEFC49
:101A8000411B03200229F4D9DAE704F11C064FCEEA
:101A9000256B0843D90340EA82104FF6FF72914349
:101AA00040EA0660A1F58031084340EA05703860DD
:101AB0000120C8F86000FFF7D1FC044648460068E2
:101AC00010F0007F06D1FFF7C9FC011B032002299B
:101AD000F4D9B5E70020B3E70038024004380240EB
:101AE000000047420038FEFF411E0020B0EB116F9E
:101AF0001CBF01207047044AF023516003490B705A
:101B0000072190601160704710E000E023ED00E0D5
:101B100070477047BCB50446206802680146D0F89B
:101B20000CE051F8143F12F00F0F64D00EF49075D2
:101B300003F0010C5CEA050366D0D0071FBF1EF45A
:101B40008070206C40F001002064500706D5BCF185
:101B5000000F1EBF206C40F002002064900706D5E5
:101B6000BCF1000F1EBF206C40F004002064100781
:101B700008D50EF0200050EA0C001EBF206C40F08B
:101B800008002064206C002800F0038102EA0E00A7
:101B9000800605D5204600F02AFD206800F11401DA
:101BA0000868216C00F0400001F00801084300F0D3
:101BB000CE80204600F0F4FC2068416911F0400F0F
:101BC00001D174E0206850E8050F216820F0400042
:101BD00041E80502002AF5D1A06B002867D07249C0
:101BE0000165FFF753FB002800F0D380A06B016D67
:101BF000BDE8BC40084702EA0E01890604D520462C
:101C0000BDE8BC4000F0F3BC02EA0E01CA06226B3C
:101C10003AD5012A38D1002101910168019141682A
:101C200001910199416911F0400F45D1E18DA28DDB
:101C3000E38D002B00F0AD80511A89B209B9A8E0FC
:101C4000206850E8030F226820F4907042E80303F4
:101C5000002BF5D1206850E8050F226820F0010024
:101C600042E80503002BF5D1202084F83E00002037
:101C70002063206850E8030F226820F0100042E83B
:101C80000303002BF5D15DE00A0666D594F83D10FC
:101C900021297ED1A168B1F5805F02D12169002997
:101CA00069D0216A4A1C2262097841606AE02046B4
:101CB000BDE8BC40FFF72DBFA26B11684B6899B21D
:101CC000002966D0B4F82CC0614562D2E385D169A1
:101CD000B1F5807F01D131E0206850E8030F216821
:101CE00020F4807041E80302002AF5D1206850E812
:101CF000050F216820F0010041E80502002AF5D116
:101D0000206850E8050F216820F0400041E80502F6
:101D1000002AF5D1202084F83E00002020632068AE
:101D200050E8030F216820F0100041E80302002A68
:101D3000F5D1A06BFFF768FAB4F82CC0E08DACEBDE
:101D4000000081B22046BDE8BC40FFF7E1BE20465E
:101D5000FFF7DFFE00202064BCBD490619D5C1682D
:101D600021F04001C160202084F83D002046BDE8FC
:101D7000BC4000F074B9216A31F8022B6FF35F2286
:101D800042602162E18C4FF6FF7201391142E18419
:101D900000D0BCBDC16821F08001C160C16841F0C4
:101DA0004001C160BCBD00BF9525000810B50446C8
:101DB00044B394F83D0028B9002084F83C00204644
:101DC00000F022F8242084F83D002068C16821F446
:101DD0000051C160204600F067FC2068016921F4D1
:101DE00090410161416921F02A014161C16841F4DA
:101DF0000051C16000202021206484F83D1084F847
:101E00003E1010BD012010BD10B586B0044601A8DB
:101E10001421FEF735FA20684649884231D0F4494A
:101E200088425AD0E449884240F081800020D2495B
:101E300000900A6942F080420A610A6902F0804219
:101E40000092009A00900A6842F010020A60096845
:101E500001F0100100910099022102914FF4C0712C
:101E600001910390032001A90490082005903248B5
:101E7000FFF71EFA522000210022FFF75BFB5220E1
:101E800053E00020BC4900904A6942F020024A61B8
:101E90004A6902F020020092009A00900A6842F01B
:101EA00004020A60096801F004010091009902210E
:101EB0000291C02101910390032001A90490082000
:101EC00005901D48A0F50060FFF7F2F947200021BA
:101ED0000022FFF72FFB472027E00020A6490090B3
:101EE0000A6942F000420A610A6902F00042009267
:101EF000009A00900A6842F010020A60096801F036
:101F00001001009100990221029103210191CDE974
:101F10000301082001A905900748FFF7C9F95320DC
:101F200000210022FFF706FB5320FFF7F5FA06B069
:101F300010BD00BF001401400010024010B590F821
:101F40003E30202B06D1012429B122B190F83C303B
:101F5000012B02D10224E0B210BD0024012304634E
:101F600080F83C3000F006FCF5E70000914988421B
:101F700018BF704710B50B4C2078732805D101208D
:101F80004FF47A71FEF74AFC20786D2808BFFEF7FF
:101F9000FDFB884803490122FFF7D0FFBDE8104050
:101FA000704700BF800500202DE9F04704469946A0
:101FB00016460D4694F83D00202806D101202DB18B
:101FC00026B194F83C00012803D10220C0B2BDE83C
:101FD000F0874FF0000A0120C4F840A084F83C00CC
:101FE000212084F83D00FFF739FAA684E684804674
:101FF000A068B0F5805F06D127690026002F0CBFCE
:102000002E462F4601E02F46002684F83CA015E01E
:102010002046802142464B4600F0C7FBC0B91FB1A5
:1020200017F8011B206805E036F8021B206800271E
:102030006FF35F214160E08C0138E084E08C002880
:10204000E6D12046402142464B4600F0AEFB08B1A7
:102050000320BBE7202084F83D000020B6E770474E
:10206000FEE7000010B50D480D4A032100234FF490
:10207000102C4FF4401E4FF00124C0E90021C0E9AC
:102080000233C0E904CE84618383FEF73FFF00285A
:1020900014BFBDE8104010BDFEF7B0BCE400002046
:1020A0000064004080B50E480E4A032100234FF41F
:1020B000102C4FF4401EC0E900214FF48071C0E99C
:1020C0000233C0E904CE0183C0F81A30FEF71EFFC8
:1020D000002814BFBDE8804080BDFEF78FBC00BF64
:1020E0000C0100200068004070B586B00025224831
:1020F000224C0022012605950095016841F004015B
:102100000160016801F004010091009900950168E7
:1021100041F080010160016801F0800100910099A7
:102120000095016841F001010160016801F00101C1
:10213000009100990095016841F01001016001686B
:1021400001F01001009100990095016841F0020131
:1021500001600121006800F0020000900098204614
:10216000FFF776F901A92046CDE90166CDE90355CF
:10217000FFF79EF806B070BD303802400000024004
:1021800080B50C480C4A4FF4E13100234FF00C0CA1
:10219000C0E90021C0E90233C0E9043CC0E90633CC
:1021A000FFF704FE002814BFBDE8804080BDFEF7A5
:1021B00025BC00BF780100200078004080B5F448BD
:1021C0000B4A4FF4E13100234FF00C0CC0E9002121
:1021D000C0E90233C0E9043CC0E90633FFF7E6FD7D
:1021E000002814BFBDE8804080BDFEF707BC00BFDB
:1021F000007C004080B50C480C4A4FF4E1310023CC
:102200004FF00C0CC0E90021C0E90233C0E9043CE6
:10221000C0E90633FFF7CAFD002814BFBDE88040BF
:1022200080BDFEF7EBBB00BF34010020001401406D
:10223000FEE7FEE7704790ED052A90ED013A30EE9B
:10224000C06A90ED001A90ED060A90ED024A90EDFA
:10225000035A32EE027A76EE420A26EE033A36EE60
:10226000477A01EE203A37EE000A04EE003A90ED8C
:10227000070A80ED046A80ED056A80ED062A35EED6
:10228000031AB4EEC01AF1EE10FA0ADC90ED082A37
:10229000B0EE410AB4EEC21AF1EE10FAB8BFB0EED9
:1022A000420A80ED090A80ED030A70472DE9F04FDC
:1022B00070496F480023764C744A6F4E6F4F754DCE
:1022C0008C466F490364A346B646B84641648A46C5
:1022D0006C49816489466C49C36480E816006E4C81
:1022E000C0E90333C0E90533C5616C4A6C49C0E9F4
:1022F00008438662C0E90BC76A4F6B4EC0E90D33D5
:10230000C363C0E92073C0E92233C0E9243AC0E9BD
:1023100026930665654E6A4F4665654EC0E91663AD
:10232000C0E91833C0E91A35C0E91C43C0E91E21D1
:10233000604E554D554A604900F1C004C0E9383A35
:10234000C0E93A93C0F8A050C0E9292BC0E92B336B
:10235000C0E92D33C0F8BC60A4E80A40C0E933C826
:10236000C0E93533C0F8DC30C0E94883C0E94A33FE
:10237000C0F83031514CC0F83441C0F83871C0F861
:102380003C31C0E93C52144600F58872C0E93EB3C6
:10239000C0E94033C0E94236A2E80A40C0F81CC197
:1023A000C0E961A9C0F88C31C0E95054C0E952833A
:1023B000C0E95433C0E9563600F5B072A2E80A40CD
:1023C000C0E95BCBC0E95D33C0E95F33354AC0E9A2
:1023D0007023354AC0E97233C0E9743AC0E9769394
:1023E000C0F89021314AC0F89421314AC0E96623EF
:1023F000284AC0E96833C0F8A831C0F8AC21264AA1
:10240000C0E96C23254AC0F8B821254AC0F8BC2190
:102410002A4AC0F82032914600F50072C0E9899737
:10242000C0E97854C0E97A83C0E97C33C0E97E36DC
:10243000A2E80A40C0E983CBC0E98533C0F81C326A
:10244000C0E99933C0E99B33C0E99D97C0F87C325D
:10245000C0E98B35C0E98D48C0E98F33C0E99133BD
:10246000C0E99361C0E9953EC0E997CBBDE8F08F24
:10247000000300206F12833A9A99193E295C0F3DA0
:102480000000C8420000C8C20000C0419A99993FAC
:102490008FC2F53C00803B4600803BC6BFBABA3EC7
:1024A000AA49F03BF27B9B3B9A99854148E17A3FF0
:1024B000272EC73C00701446007014C60000FA4373
:1024C0000000FAC37047FEF7CDBF0000B0B594B06E
:1024D000002402A81421CDE90B44CDE90944FDF7FD
:1024E000CFFE214801940225016841F0805101602E
:1024F000006800F080500190019801941B48016829
:1025000041F440410160006800F4404001900198AE
:102510004FF480300890012007904FF480000D9513
:102520000E9004200F905A20CDE9100507A8CDE9A0
:102530001255FFF71BF918B1EFF3108072B6FEE7E2
:102540000F200395032102904FF480500494CDE9AD
:10255000050402A8FFF72AF818B1EFF3108072B64D
:10256000FEE714B0B0BD00BF40380240007000402C
:102570000248016841F470010160704788ED00E095
:10258000D048FFF7C7BA00BF0148FFF7C3BA00BF82
:10259000BC010020806B0021C185C184FFF7B9BA5E
:1025A000016851E8031F026821F4907142E80313A7
:1025B000002BF5D1016851E8051F026821F00101E7
:1025C00042E80513002BF5D1016B012909D10168FF
:1025D00051E8031F026821F0100142E80313002BA9
:1025E000F5D1202180F83E1000210163704790F85A
:1025F0003E10222918BF70478268B2F5805F03D170
:10260000016979B1816A05E0816A0AB902690AB192
:102610007F2200E0FF2203685B681A400A700122F3
:10262000816A06E00268816A52686FF35F220A805D
:10263000022211444FF6FF728162C18D01391142AD
:10264000C18500D070470168CA6822F02002CA60C4
:10265000CA6822F48072CA604A6922F001024A61A3
:10266000202280F83E20026B012A18BFFFF77EBCB3
:102670000022026351E8031F026821F0100142E8C2
:1026800003130168002BF5D10A6812F0100F08D06F
:1026900081B0002200920A68009249680091009976
:1026A00001B0818DFFF734BAB0B5044649F20C652C
:1026B00020680169E26821F4405111430161D4F8B6
:1026C00008C0D4E90423D4F81CE0C16842EA0C0233
:1026D000A9431A4342EA0E021143C1604169A2694B
:1026E00021F4407111434161214908444FEAB0206F
:1026F000032802D8FEF7FCFF01E0FEF7EFFFE269D6
:1027000019216368A0FB0101B2F5004F16D15A00F0
:10271000DB0FFDF77DFD64216FF06303B0FBF1F289
:1027200002FB0300322303EBC000B0FBF1F14FF4D6
:10273000F87000EA410001F0070113E09A009B0FD6
:10274000FDF766FD64216FF06303B0FBF1F202FB5D
:102750000300322303EB0010B0FBF1F101F0F000B5
:1027600001F00F0100EB0210084321688860B0BD42
:1027700000F0FEBF0023C2850364828581622221AE
:1027800080F83C3080F83E100168006918B1C868D4
:1027900040F48070C860486940F001004861C86832
:1027A00040F02000C860002070472DE9F0411D4630
:1027B00090460F4604466E1C206800683840B842B8
:1027C00026D0002EF8D02DB1FEF748FEA0EB080071
:1027D000A842F1D9206850E8030F216820F4D07096
:1027E00041E80302002AF5D1206850E8050F21686E
:1027F00020F0010041E80502002AF5D12020002147
:1028000084F83D0084F83C1084F83E00032000E08A
:102810000020C0B2BDE8F0810148FFF77BB900BFDE
:102820003401002083B010B5A1B0844623A86C46C3
:102830000EC023AA61462046209200F04BF82046A5
:10284000FDF729FD82B21F4821464FF6FF73FFF7BF
:10285000ABFB21B0BDE8104003B07047FEE70000BD
:1028600001A0FFF7DFBF00BF6F7665720A000000AE
:1028700080B5FEF7FDFDFFF729FEFFF735FCFFF7FA
:10288000F1FBFFF70FFCFFF77BFCFFF797FCFFF76F
:10289000B1FCFDF793FFFFF709FD0A480A49012241
:1028A000FFF74CFBFEF7DAFD0849C1E90000C1E97A
:1028B000020007A0FFF7B6FF01204FF4FA51FDF721
:1028C000A7FFF9E77801002080050020A40500207B
:1028D0006F6B0A0037B514460846064B6A46214618
:1028E00000F0DCF804466946002000F06EFC20464B
:1028F0003EBD0000CB31000802E008C8121F08C12D
:10290000002AFAD170477047002001E001C1121F70
:10291000002AFBD1704700002DE9FF5F82B0002143
:10292000DDE90430020DDDF840B0034318D044F671
:102930001050A2F2FF3242431514119801281FD003
:10294000A5EB0B00401C5FEA000A4FF000064E4F5B
:10295000DFF83891B046504615D5CAF1000413E0AF
:10296000119801244AA3012801D16FEA0B010298B2
:10297000119AC0E90031C0E9024206B0BDE8F09FFB
:10298000CBF10000DFE704460021404A491842EB42
:102990000450CDE9001012E0E00707D032463B4674
:1029A00040464946FDF725FD8046894632463B466E
:1029B00010461946FDF71DFD06460F466410002C13
:1029C000EAD1DDE90401DDE90023BAF1000F06DAFE
:1029D000FDF70FFD42464B46FDF70BFD05E0FDF709
:1029E0007AFD42464B46FDF776FD04460E46002230
:1029F000284BFDF79BFE03D84FF0FF30014607E060
:102A00000022254B20463146FDF74CFCFDF776FEB3
:102A1000102409E0002C0ADB0A220023FDF7F8FB52
:102A2000039B30321A55641E50EA0102F2D1641C35
:102A3000039AC4F111031444119A012A03D001220C
:102A400008430DD10AE0084304D000204FF0110BD9
:102A5000119072E7A3EB0B056D1E0DE05B4504DDE5
:102A60004FF0000205F1010504E003DA4FF0000227
:102A7000A5F10105002AECD002981199C0E90231B4
:102A8000C0E9004579E70000000014400000F03F75
:102A9000300000000000F0430000E03F2DE9FF4F50
:102AA00095B09B468946064600250FE2252877D13A
:102AB00000242746F84A0121059400E0044316F853
:102AC000013F203B01FA03F01042F7D130782A2869
:102AD00011D06FF02F033078A0F13002092A16D8F8
:102AE000059A44F0020402EB820203EB4202104416
:102AF000761C0590EFE759F8042B0592002A03DABB
:102B0000504244F40054059044F00204761C30789E
:102B10002E2816D116F8010F44F004042A280DD0EF
:102B20006FF02F023078A0F13003092B09D807EBA2
:102B3000870302EB4303C718761CF3E759F8047BBD
:102B4000761C30786C280FD006DC4C2817D068280B
:102B50000DD06A2814D104E0742810D07A280FD13F
:102B60000DE044F400140AE044F4801401E044F45D
:102B700040147278824202D104F58014761C761CCF
:102B8000307866280BD013DC582877D009DC002871
:102B900075D04528F6D04628F4D047281AD19DE1B3
:102BA00018E0632835D0642879D0652812D195E1E2
:102BB000702873D008DC6728F1D069286FD06E28A0
:102BC0000DD06F2806D1B5E073282CD0752875D0AC
:102BD000782874D05A46179990476D1C75E1C4F354
:102BE0000250022809D003280DD0D9F8001004287B
:102BF0000DD00D6009F1040967E1D9F80010EA175A
:102C0000C1E90052F6E7D9F800100D80F2E70D7027
:102C1000F0E719F8041B8DF8001000208DF8010072
:102C2000EA46012003E059F804AB4FF0FF3061079A
:102C30004FF0000102D40DE008F101018846B942CD
:102C40000FDA8045F8DB1AF808100029F4D108E003
:102C500008F1010188468142FADB1AF808100029C0
:102C6000F6D105985B46A0EB080721463846179A2F
:102C700000F094FA284400EB080507E04DE029E154
:102C80000DE01AF8010B5A4617999047B8F1010860
:102C9000F7D25B4621463846179A13E142E00A22F2
:102CA0000092C4F302524FF0000A022A08D059F8E9
:102CB00004CB032A4FEAEC710AD00DE029E02AE0A8
:102CC00009F1070121F00702F2E802C1914609E08B
:102CD0000FFA8CFC4FEAEC71042A03D14FFA8CFCFA
:102CE0004FEAEC71002907DA0A460021DCF1000CFA
:102CF00061EB02012D2202E0220504D52B228DF882
:102D00000420012203E0E20701D02022F7E79046E9
:102D100059E00A2102E010220DE010214FF0000AD4
:102D200000910BE010224FF0000A44F00404082741
:102D3000009203E008224FF0000A0092C4F302520E
:102D4000022A05D059F804CB0021032A08D009E053
:102D500009F1070121F00702F2E802C1914605E0FE
:102D60001FFA8CFC042A01D10CF0FF0C4FF0000874
:102D7000220728D5702806D0009B83F0100353EA61
:102D80000A0305D00EE040228DF80420012208E05D
:102D90005CEA010206D030228DF804208DF805008F
:102DA00002229046009B83F0080353EA0A030AD1EB
:102DB0005CEA010201D1620705D530228DF80420BA
:102DC0004FF001087F1E582804D034A003900EA8AD
:102DD00002900DE036A0F9E753466046009AFDF7F1
:102DE00017FA84460398825C0298401E0290027093
:102DF0005CEA0100F0D1029806A9081A00F1200A45
:102E0000600702D524F4803400E00127574502DD35
:102E1000A7EB0A0000E0002000EB0A0100900598F3
:102E20004144401A0590E00306D45B462146179AB8
:102E3000059800F0B3F90544002706E001A85A46BA
:102E4000C05D179990476D1C7F1C4745F6DBE0037A
:102E50000CD55B462146179A059800F09FF905446A
:102E600004E030205A46179990476D1C0099481E7F
:102E700000900029F5DC08E0029802995A46007893
:102E8000491C0291179990476D1CBAF10001AAF1F3
:102E9000010AF1DC65E1000009280100303132331C
:102EA0003435363738396162636465660000000086
:102EB0003031323334353637383941424344454670
:102EC0000000000000F058F90544761C3078002816
:102ED0007FF4ECAD19B02846BDE8F08F620700D44E
:102EE000062709F1070222F0070CFCE80223E1465D
:102EF00003F000485FEA080C02D00FF2702C0DE0DE
:102F00005FEA045C02D50FF2682C07E05FEAC47C3C
:102F100002D00FF2602C01E0AFF2700C4FF0FF38DE
:102F200023F00043CDF850C065280CD006DC4528BE
:102F300009D046281DD047283DD13DE0662818D04D
:102F400067287ED138E00021112F01DB112000E03D
:102F5000781CCDE9000106A90EA8FFF7DDFCDDE92C
:102F60000F010E9A03910021009207F1010A0491CA
:102F70004DE04FF000400097CDE9011006A90EA8E2
:102F8000FFF7CAFCDDE90F0203920E9B11990022A4
:102F9000DDF80CA00093049211B9791C00EB010A32
:102FA000B7EB0A0004D4C0F1FF3007F1010A049026
:102FB000AAEB0700019044E0012F00DA012700216D
:102FC000112F01DD112000E03846CDE9000106A9EE
:102FD0000EA8FFF7A1FCDDE90F010E9A0391002175
:102FE00004910092BA4621070CD40399514500DAA6
:102FF0008A46BAF1010F05DD009AAAF10101515C80
:10300000302908D0B84202DA10F1040F06DA0121A3
:10301000CDE9011015E0AAF10101E9E7002805DC7E
:10302000049901440491AAEB000102E0411C5145BE
:1030300000DD8A460499401A401C01904FF0004080
:103040000290200704D40198504501DBCDF804809C
:1030500000208DF84F0002980DF14F07B0F1004F9E
:1030600025D02B200E9002984FF0020800280CDA91
:10307000404202902D200E9007E00A210298FDF7B1
:1030800099FA3031029007F8011DB8F10001A8F15A
:103090000108F2DC02980028EFD1791E0E98087022
:1030A000307800F0200040F0450007F8020D12A82B
:1030B000C01B00F107081498007800B1012000EB54
:1030C0000A01019801EBE07105984144401A401E45
:1030D0000590E00306D45B462146179A059800F058
:1030E0005DF805441498007818B15A46179990472E
:1030F0006D1CE00324D55B462146179A059800F025
:103100004DF805441CE00498002807DBDDE90301C5
:10311000884203DD0098405C179901E01799302040
:103120005A469047049805F10105401C0490019807
:10313000401E019004D12E205A46179990476D1CCD
:10314000BAF10001AAF1010ADDDC05E017F8010B74
:103150005A46179990476D1CB8F10001A8F1010873
:10316000F4DC5B462146179A0598ABE62D0000007B
:103170002B000000200000002DE9F041044600254E
:103180001E461746880404D405E039462020B0477F
:103190006D1C641EF9D52846BDE8F0812DE9F0418B
:1031A000044600251E469046C80301D5302700E09E
:1031B0002027880404D505E041463846B0476D1CF9
:1031C000641EF9D52846BDE8F0810A68531C0B60DF
:1031D00010707047000000000000000001020304AE
:1031E000060708090000000001020304103200086D
:1031F0000000002080000000F8280008903200083D
:1032000080000020380900000829000800000000A4
:103210000100000010000000000000000024F40085
:10322000000000000000000000200000000000007E
:10323000000000000100000000400000000000004D
:103240000000000005000000006000000000000019
:10325000000000000000000000000000000000006E
:10326000000000000100000000000000000000005D
:1032700000000000050000000000000061280008B8
:1032800000000000050000000000000061280008A8
:04000005080001D915
:00000001FF
